{
  "_format": "hh-sol-artifact-1",
  "contractName": "Contract",
  "sourceName": "contracts/contract.sol",
  "abi": [
    {
      "anonymous": false,
      "inputs": [
        {
          "indexed": true,
          "internalType": "address",
          "name": "_account",
          "type": "address"
        },
        {
          "indexed": false,
          "internalType": "string",
          "name": "_fileName",
          "type": "string"
        }
      ],
      "name": "CIDDeposit",
      "type": "event"
    },
    {
      "anonymous": false,
      "inputs": [
        {
          "indexed": true,
          "internalType": "address",
          "name": "_account",
          "type": "address"
        },
        {
          "indexed": false,
          "internalType": "string",
          "name": "_fileName",
          "type": "string"
        }
      ],
      "name": "CIDRecuperation",
      "type": "event"
    },
    {
      "inputs": [
        {
          "internalType": "string",
          "name": "_fileName",
          "type": "string"
        }
      ],
      "name": "getCID",
      "outputs": [
        {
          "internalType": "string",
          "name": "",
          "type": "string"
        }
      ],
      "stateMutability": "nonpayable",
      "type": "function"
    },
    {
      "inputs": [
        {
          "internalType": "string",
          "name": "_fileName",
          "type": "string"
        },
        {
          "internalType": "string",
          "name": "_CID",
          "type": "string"
        }
      ],
      "name": "storeCID",
      "outputs": [],
      "stateMutability": "nonpayable",
      "type": "function"
    }
  ],
  "bytecode": "0x608060405234801561001057600080fd5b506108a8806100206000396000f3fe608060405234801561001057600080fd5b50600436106100365760003560e01c80631c461ee11461003b578063cdd5c0e31461006b575b600080fd5b610055600480360381019061005091906103d5565b610087565b604051610062919061049d565b60405180910390f35b610085600480360381019061008091906104bf565b6101c1565b005b60603373ffffffffffffffffffffffffffffffffffffffff167f58e4f93d88be2eb3c9b832b4bc3abe1f0ee25fc2d620e8d087e27722e2f9cdf4836040516100cf919061049d565b60405180910390a26000803373ffffffffffffffffffffffffffffffffffffffff1673ffffffffffffffffffffffffffffffffffffffff168152602001908152602001600020826040516101239190610573565b9081526020016040518091039020805461013c906105b9565b80601f0160208091040260200160405190810160405280929190818152602001828054610168906105b9565b80156101b55780601f1061018a576101008083540402835291602001916101b5565b820191906000526020600020905b81548152906001019060200180831161019857829003601f168201915b50505050509050919050565b806000803373ffffffffffffffffffffffffffffffffffffffff1673ffffffffffffffffffffffffffffffffffffffff1681526020019081526020016000208360405161020e9190610573565b9081526020016040518091039020908161022891906107a0565b503373ffffffffffffffffffffffffffffffffffffffff167f07d6514b8585e33e177dfe63c813154e44b1fe5cd1824bdfbe84946c0bfad88d8360405161026f919061049d565b60405180910390a25050565b6000604051905090565b600080fd5b600080fd5b600080fd5b600080fd5b6000601f19601f8301169050919050565b7f4e487b7100000000000000000000000000000000000000000000000000000000600052604160045260246000fd5b6102e282610299565b810181811067ffffffffffffffff82111715610301576103006102aa565b5b80604052505050565b600061031461027b565b905061032082826102d9565b919050565b600067ffffffffffffffff8211156103405761033f6102aa565b5b61034982610299565b9050602081019050919050565b82818337600083830152505050565b600061037861037384610325565b61030a565b90508281526020810184848401111561039457610393610294565b5b61039f848285610356565b509392505050565b600082601f8301126103bc576103bb61028f565b5b81356103cc848260208601610365565b91505092915050565b6000602082840312156103eb576103ea610285565b5b600082013567ffffffffffffffff8111156104095761040861028a565b5b610415848285016103a7565b91505092915050565b600081519050919050565b600082825260208201905092915050565b60005b8381101561045857808201518184015260208101905061043d565b60008484015250505050565b600061046f8261041e565b6104798185610429565b935061048981856020860161043a565b61049281610299565b840191505092915050565b600060208201905081810360008301526104b78184610464565b905092915050565b600080604083850312156104d6576104d5610285565b5b600083013567ffffffffffffffff8111156104f4576104f361028a565b5b610500858286016103a7565b925050602083013567ffffffffffffffff8111156105215761052061028a565b5b61052d858286016103a7565b9150509250929050565b600081905092915050565b600061054d8261041e565b6105578185610537565b935061056781856020860161043a565b80840191505092915050565b600061057f8284610542565b915081905092915050565b7f4e487b7100000000000000000000000000000000000000000000000000000000600052602260045260246000fd5b600060028204905060018216806105d157607f821691505b6020821081036105e4576105e361058a565b5b50919050565b60008190508160005260206000209050919050565b60006020601f8301049050919050565b600082821b905092915050565b60006008830261064c7fffffffffffffffffffffffffffffffffffffffffffffffffffffffffffffffff8261060f565b610656868361060f565b95508019841693508086168417925050509392505050565b6000819050919050565b6000819050919050565b600061069d6106986106938461066e565b610678565b61066e565b9050919050565b6000819050919050565b6106b783610682565b6106cb6106c3826106a4565b84845461061c565b825550505050565b600090565b6106e06106d3565b6106eb8184846106ae565b505050565b5b8181101561070f576107046000826106d8565b6001810190506106f1565b5050565b601f82111561075457610725816105ea565b61072e846105ff565b8101602085101561073d578190505b610751610749856105ff565b8301826106f0565b50505b505050565b600082821c905092915050565b600061077760001984600802610759565b1980831691505092915050565b60006107908383610766565b9150826002028217905092915050565b6107a98261041e565b67ffffffffffffffff8111156107c2576107c16102aa565b5b6107cc82546105b9565b6107d7828285610713565b600060209050601f83116001811461080a57600084156107f8578287015190505b6108028582610784565b86555061086a565b601f198416610818866105ea565b60005b828110156108405784890151825560018201915060208501945060208101905061081b565b8683101561085d5784890151610859601f891682610766565b8355505b6001600288020188555050505b50505050505056fea264697066735822122098f7c4343d0d6f62fb3cb66db35126d669fccc1e5eaf72cac81cfdb6883140a564736f6c63430008110033",
  "linkReferences": {},
  "deployedLinkReferences": {}
}